{
  "contractName": "Splitter",
  "abi": [
    {
      "inputs": [
        {
          "name": "rec1",
          "type": "address"
        },
        {
          "name": "rec2",
          "type": "address"
        }
      ],
      "payable": true,
      "stateMutability": "payable",
      "type": "constructor"
    },
    {
      "constant": false,
      "inputs": [],
      "name": "slpit",
      "outputs": [],
      "payable": true,
      "stateMutability": "payable",
      "type": "function"
    },
    {
      "constant": false,
      "inputs": [],
      "name": "getBalance",
      "outputs": [
        {
          "name": "",
          "type": "uint256"
        }
      ],
      "payable": false,
      "stateMutability": "nonpayable",
      "type": "function"
    }
  ],
  "bytecode": "0x60606040526040516040806102f08339810160405280805190602001909190805190602001909190505033600260006101000a81548173ffffffffffffffffffffffffffffffffffffffff021916908373ffffffffffffffffffffffffffffffffffffffff160217905550816000806101000a81548173ffffffffffffffffffffffffffffffffffffffff021916908373ffffffffffffffffffffffffffffffffffffffff16021790555080600160006101000a81548173ffffffffffffffffffffffffffffffffffffffff021916908373ffffffffffffffffffffffffffffffffffffffff16021790555050506101f4806100fc6000396000f30060606040526004361061004c576000357c0100000000000000000000000000000000000000000000000000000000900463ffffffff16806312065fe0146100515780636abc82811461007a575b600080fd5b341561005c57600080fd5b610064610084565b6040518082815260200191505060405180910390f35b6100826100a3565b005b60003073ffffffffffffffffffffffffffffffffffffffff1631905090565b600260009054906101000a900473ffffffffffffffffffffffffffffffffffffffff1673ffffffffffffffffffffffffffffffffffffffff163373ffffffffffffffffffffffffffffffffffffffff161415156100ff57600080fd5b6000809054906101000a900473ffffffffffffffffffffffffffffffffffffffff1673ffffffffffffffffffffffffffffffffffffffff166108fc60023481151561014657fe5b049081150290604051600060405180830381858888f1935050505050600160009054906101000a900473ffffffffffffffffffffffffffffffffffffffff1673ffffffffffffffffffffffffffffffffffffffff166108fc6002348115156101aa57fe5b049081150290604051600060405180830381858888f19350505050505600a165627a7a7230582078bf62691ae2d7868bc5859ca33ac74ea40ee2b7e7611a8e3f39ebc095784de10029",
  "source": "pragma solidity ^0.4.17;\n\ncontract Splitter {\n\n\n    address receiver1;\n    address receiver2;\n    address sender;\n\n    function Splitter(address rec1, address rec2) public payable {\n        sender = msg.sender;\n        receiver1 = rec1;\n        receiver2 = rec2;\n        \n    }\n    \n    modifier onlySender() {\n        require(msg.sender == sender);\n        _;\n    }\n\n    function slpit() public onlySender payable {\n        receiver1.send(msg.value/2);\n        receiver2.send(msg.value/2);\n    }\n\n    function getBalance() public returns (uint256) {\n        return this.balance;\n    }\n\n}",
  "sourcePath": "/home/mamba/workspace/splitter/contracts/Splitter.sol",
  "compiler": {
    "name": "solc",
    "version": "0.4.19+commit.c4cbbb05.Emscripten.clang"
  },
  "schemaVersion": "1.0.1",
  "updatedAt": "2018-02-16T15:15:46.006Z"
}